:100000008AC10000A5C10000A3C10000A1C1000079
:100010009FC100009DC100009BC1000099C100006C
:1000200097C1000095C100000C947F200C944C21D6
:100030000C94651B8DC100008BC1000089C10000BC
:1000400087C1000085C1000083C1000081C100009C
:100050007FC100000C94DC1B7BC1000079C1000053
:1000600077C1000075C1000073C1000071C10000BC
:100070006FC100006DC100006BC1000069C10000CC
:1000800067C1000065C1000063C1000061C10000DC
:100090005FC100005DC100005BC1000059C10000EC
:1000A00057C1000055C1000053C100000400050005
:1000B00006000700080009000A000B000C00000001
:1000C0000000000000002A2B2800000000000000B3
:1000D00000000000000000000029000000002C1EAD
:1000E0003420212224342627252E362D3738271E6A
:1000F0001F202122232425263333362E37381F0490
:1001000005060708090A0B0C0D0E0F101112131427
:1001100015161718191A1B1C1D2F3130232D3504E5
:1001200005060708090A0B0C0D0E0F101112131407
:1001300015161718191A1B1C1D2F3130354C0000CD
:1001400000000000000000000000000000000000AF
:10015000000000000000000000000000000000009F
:1001600000007E0F00D4FFFFFFC7000000780803E7
:100170006D006200390000000E034D006F00640046
:1001800062006F00780000000403090409025B00AC
:10019000030100A0FA090400000103010100092184
:1001A0001101000122440007058103080001090430
:1001B00001000203000000092111010001222200B8
:1001C000070582032000010705030320000109043D
:1001D0000200010300000009211101000122B60004
:1001E00007058403200001120100020000000842FC
:1001F0004D09000001010200010660FF0961A10133
:100200000962150026FF0095207508810209631513
:100210000026FF00952075089102C005010902A182
:100220000185020901A10005091901290815002508
:1002300001950875018102050109300931158125F3
:100240007F95027508810609381581257F9501750E
:10025000088106050C0A38021581257F950175086D
:100260008106C0C005010980A101850319012AB7D3
:1002700000150126B700950175108100C0050C0915
:1002800001A101850419012AA002150126A00295E9
:100290000175108100C005010906A1018506050749
:1002A00019E029E715002501950875018102050768
:1002B000190029EF1500250195F075018102050847
:1002C00019012905950575019102950175039101A3
:1002D000C005010906A101050719E029E715002558
:1002E00001950875018102950175088101050719BD
:1002F0000029FF150026FF009506750881000508F6
:100300001901290515002501950575019102950131
:1003100075039101C00011241FBECFEFDAE0DEBFEC
:10032000CDBF11E0A0E0B1E0EAE0F8E402C0059042
:100330000D92A63AB107D9F722E0A6EAB1E001C0D2
:100340001D92A639B207E1F70E94AD0F0C94B123BC
:1003500057CE811112C0633080F4433070F4E42F23
:10036000F0E083E0689FE00DF11D1124EE0FFF1F08
:10037000E455FF4F85919491089581E090E00895B0
:1003800081E00895FDCF0895FBCF089581E00895A1
:10039000F7CF0895F5CF0895FDCF089508950895F6
:1003A000FDCF089508950895A6E0B0E0EAEDF1E0EC
:1003B0000C94152349835A839E833091AD01898122
:1003C0009A81311117C03E81332389F0222379F0BD
:1003D000F9D4182F682F89819A81D3D469817A81C1
:1003E000812F0E942A0D2696E3E00C943123DAD463
:1003F000182FF4CFE7D469817A81F3CFFC01262F3F
:10040000408151816281738184819581CDCFCF9369
:10041000DF93EC0161E0F2DFBE01B4DF882349F035
:1004200061E0CE01EBDFBE01AFDF8170DF91CF91E4
:10043000089580E0FACF0F931F93CF93DF93EC01E1
:1004400060E0DCDF8C01BE01AADFBE01C801A8DFCD
:10045000DF91CF911F910F91089591E001C0990F05
:100460008A95EAF7892FEBC3CF93C82F81E00C2E32
:1004700001C0880F0A94EAF70E94390B8C2FEDDF38
:10048000CF91089581E00895FDCF0895FBCF0895A1
:10049000CF93C82F8ED38C2FF7DF8C2FF7DF2FEF62
:1004A00084E39CE0215080409040E1F700C00000D0
:1004B000CF91089581E0ECDF0C94001C80E0E8DF30
:1004C0000C94111C0F931F93CF93DF938C0161E069
:1004D00095DFEC01B8015CDF811106C080E0DF919F
:1004E000CF911F910F910895B801CE0155DF882358
:1004F000A9F3B801CE010E94EE17882379F3B80161
:10050000CE010E941F17882349F3B801CE010E9433
:100510006A12882319F3B801CE010E944112882380
:10052000E9F2B801CE010E9462178823B9F2B8013E
:10053000CE010E94290E882389F2F8018581882343
:1005400061F0C330FCE7DF07D9F050F4C115ECE7E8
:10055000DE07A1F0C130DC47A9F0C80117DFBFCF2B
:10056000CB358CE7D80799F0CC35ECE7DE0761F0A6
:10057000CA35DC4791F70E94000BEFCF9BDFAECF6F
:100580000E942E0B9BDFAACF0E94F80AE6CF0E94A2
:10059000020BE3CF07DF0E943D1B17C018D003DF1B
:1005A0000C94411B81E008950895CF93DF93D82FD9
:1005B000F9DFC82F882311F08D2FF6DF8C2FDF9104
:1005C000CF9108950895F1CF089580E0FCCF0E9467
:1005D0002319F9CFCF930E942319C82F8091A80126
:1005E0008C1771F0C093A8010E94D01B6093A901E1
:1005F0007093AA018093AB019093AC018C2FE3DF41
:10060000CF910895ADE0B0E0E8E0F3E00C9416235C
:10061000488759876A877B878C879D87911113D775
:100620001F8286E0FE013896DE01119601900D9240
:100630008A95E1F78D8181110CC029813A814B8126
:100640005C816D817E818F814ED62D96E2E00C9487
:100650003223CE010196DBDE8111EFCFF6CFFC0114
:100660002481213019F480819181D8C308956623B3
:1006700021F00E94C4130C948F140E941614FBCF17
:10068000CF93C82F882389F08CEF8C0F813A78F4B0
:100690008C2F0E94DF19882321F08C2F0E94811A51
:1006A0005DD78C2F0E946A1A59D7CF91089580E2A6
:1006B0008C0F883040F4C77081E001C0880FCA9564
:1006C000EAF7A4D6F1CFEBE5EC0FE33040F4F0E02D
:1006D000EB5AFE4F808190E00E946319E6CFE8E577
:1006E000EC0FEB3150F4F0E0EE0FFF1FE15EFE4F38
:1006F000808191810E948A19D8CF83E38C0F833146
:10070000A0F661E08C2FB3DFD0CF882351F19CEFAE
:10071000980F913A18F40E94811A20C790E2980F1E
:10072000983048F4877091E001C0990F8A95EAF7F4
:10073000892F72D6F2CF9BE5980F933020F490E08A
:1007400080E00C94631998E5980F9B3120F490E0B9
:1007500080E00C948A1993E3980F933110F460E0D1
:1007600086CF08951F93CF93DF93182FEB0188DF77
:10077000209731F4812FC9DFDF91CF911F91089528
:100780008FE99FE00197F1F700C000002197F0CFBB
:1007900070E060E0893311F460E570E0E3CF882316
:1007A00011F034D6DBC60895882311F035D6D6C6AD
:1007B0000895B0E0A0E0EFEDF3E00C940F236C019E
:1007C000D62FC72FFC011581068102950F7014D614
:1007D000E82E8823E9F0E12E1123D1F08C2F807FC1
:1007E000803461F080E28D0F8830F8F08C2F807EAD
:1007F000803221F4D230C8F00023B9F080917E021B
:1008000082FF13C082E0CED6F7D591E0E82EE9262C
:10081000BC2EB2949FE0B922FBE0FB1580F1EB2DDA
:10082000F0E0ED54FC4D0C94F922E12CF1CF0C2FAB
:100830000F70C07F11F00295007F112381F000231B
:1008400049F080E28D0F883010F0D11105C0802F63
:10085000DDD584D68D2F40C0802FE8D5FACF8D2FDF
:1008600054DF002361F080E28D0F883010F0D11149
:1008700003C0802FD1D502C0802FDED56FD6EB2DDF
:10088000E850FF0B349708F042C10E9423199BDE09
:10089000CDB7DEB7E9E00C942B232C2F2F70F22E6E
:1008A000C07FC03219F0F29480EFF822DD2341F0CE
:1008B000D13081F1112309F439C00023C9F0CACF26
:1008C00080917E0282FD10C0112341F0FF2019F0BB
:1008D0008F2D9CD543D680E0D3DED1CF80E015DFCD
:1008E000FF2069F28F2DC6CF112359F0011103C0EB
:1008F0008F2D55DFC4CF013009F0C1CF8F2DB7D573
:10090000BECF0111BCCF8F2D4FDF8F2DBBD58F2DCB
:10091000A0D5B5CF112321F0063008F0B0CFE8CF35
:10092000053008F0ACCF8F2D3FDFA9CF0023D9F3DE
:10093000D93349F43FEF87EE93E031508040904047
:10094000E1F700C000008D2FE0DE99CF8C2F869557
:100950008695837069F0813009F091CF8D2F9C2F9F
:100960009370111102C080E090E00E948A1987CF35
:100970008D2F9C2F9370111102C080E090E00E9497
:1009800063197DCF612F8D2F72DE79CF8C2F83700D
:1009900059F5111174CF4D2F429546954770440F6C
:1009A000440F8D2F8F70042E01C0880F0A94EAF730
:1009B0002D2F2071D4FF07C02FE030E001C0220F9F
:1009C0004A95EAF72095C695C695C370822BC2302A
:1009D00039F040F4C13011F038D151CF32D14FCF7E
:1009E00038D14DCF2CD14BCF8695112311F08C2FC0
:1009F0008170882309F443CF4D2F42954695477067
:100A0000440F440F8D2F8F70042E01C0880F0A945D
:100A1000EAF72D2F2071D4FF07C02FE030E001C08E
:100A2000220F4A95EAF72095C695C695C370822B8A
:100A3000C23039F040F4C13011F046D120CF40D15E
:100A40001ECF46D11CCF0FD11ACFCF70112321F06A
:100A50008C2F17D18D2F4DCF8D2FA6DE8C2F1BD134
:100A60000ECFD23F39F160F4D03FB9F0D13F81F0E1
:100A7000112309F43CC00111EDCE8C2F8F711EC0E3
:100A8000D33FF1F0D43FA1F780917E0282FD20C0D8
:100A90008C2F8F71112319F311C0112339F00530F8
:100AA00008F0EDCE8C2F8F7101D1E9CE063008F021
:100AB000E6CEF8CF8C2F8F711111D1CFE2D0DFCEDF
:100AC000112321F08C2F8F71D5D0D9CED1D0D7CE94
:100AD000112329F063E08C2F8F714DD5D0CE81E0AA
:100AE00061D5023008F4CBCE82E05CD5C8CE0023BD
:100AF00059F0D93309F027CFEFEFF7EE23E0E150BB
:100B0000F0402040E1F71DCF8C2F8F71A8CFEE2051
:100B100009F4BECE6DD480FDBBCEF601158262D441
:100B2000B0D0C60117D05ED4B6D0B2CE0F931F930B
:100B3000CF93DF93EC01688179818D8178D18C012D
:100B4000CBD07CD0B801CE0134DEDF91CF911F91A4
:100B50000F910895CF93DF93EC018C81882381F06E
:100B6000CE01B0DC81110FC047D4882349F08D81BC
:100B7000882331F080917E0282FF02C082E012D58C
:100B8000DF91CF910895CE01D1DFCE0154DCF8CFB3
:100B900090E080E00E94631990E080E00E948A1952
:100BA00052D4DCD40E94A8140C948F140E94981A7A
:100BB000EFCF39D4FBCF92959F70963091F058F4D7
:100BC000925F9F70923058F4803F19F030F4883E65
:100BD00030F481E008959A5FF4CF843FD1F380E050
:100BE0000895883EB0F3813FD1F7F3CFFC01248113
:100BF000222321F08081918111D1DDCF80E0089501
:100C0000A6E0B0E0E6E0F6E00C9416232696E2E0DB
:100C10000C943223A7E0B0E0E0E1F6E00C94162358
:100C20002796E2E00C9432230895FECF0895FDCF7D
:100C30000895FADFFCDF8093B50108950895F9CF98
:100C400008959091B501892BF4CF9091B501892336
:100C5000F0CF9091B5018927ECCFE6CF0895FDCF75
:100C60000895E2CF0895FDDFFADF8093B40108957F
:100C700080E0F9CF91E001C0990F8A95EAF7892FBA
:100C8000F2CF21E030E001C0220F8A95EAF780918F
:100C9000B401822BE8CF21E030E001C0220F8A9519
:100CA000EAF720958091B4018223DDCF21E030E086
:100CB00001C0220F8A95EAF78091B4018227D3CF31
:100CC0009091B401892BCFCF9091B4018923CBCFE0
:100CD0009091B4018927C7CF0895262F277091E0FE
:100CE00001C0990F2A95EAF723E0769567952A9532
:100CF000E1F7FB01EE0FFF1FE60FF71FE40FF51FF3
:100D000050E040E0682F70E08191DF0111979B0176
:100D1000042E02C0369527950A94E2F7217021959A
:100D20002827292328272C934F5F5F4F43305105F5
:100D300059F70895A82FA77023E0969587952A95CF
:100D4000E1F7FC01EE0FFF1FE80FF91FE60FF71F99
:100D500050E040E080E0219130E00A2E02C036955C
:100D600027950A94E2F721703327042E01C0220F41
:100D70000A94EAF7822B4F5F5F4F4330510559F7D2
:100D80000895262F933068F4833058F4682F70E06C
:100D900083E0989F600D711D11244EEA51E0822F6F
:100DA0009CCF0895292F933058F4833048F490E075
:100DB0006EEA71E033E0239F800D911D1124BACFBC
:100DC00080E00895CF92DF92FF920F931F93CF930D
:100DD000DF936C010091B4018091B501082BC3E051
:100DE000D0E010E0FC2EC8010C2E02C0959587952E
:100DF0000A94E2F780FD0CC02197A0F7F12C8F2D0B
:100E0000DF91CF911F910F91FF90DF90CF900895C8
:100E1000B6018C2F29D6019779F3F1CFCF93DF93C9
:100E2000EC01D0DFBE0120D6DF91CF9108951F9352
:100E3000CF93DF93EB019091AD01992331F0CB017A
:100E4000EDDFDF91CF911F910895882351F0CB0101
:100E5000B9DF182F682FCE0194DFBE01812F04D691
:100E6000F0CFCB019FDF182FF8CFE1E0F0E0DF01FA
:100E700002C0AA0FBB1F6A95E2F7BD01DF0102C0E5
:100E8000AA0FBB1F4A95E2F76A2B01C0EE0F2A9505
:100E9000EAF7962F9823961302C08E2B0895E095BB
:100EA0008E230895242F462F682F8091B401DDDF13
:100EB000DACE1F93CF93DF93C091B60117E08091F4
:100EC000B7018C1304C0DF91CF911F910895D0E03A
:100ED0001C9FF0011D9FF00D1124E854FE4F20814E
:100EE00031814281538164817581868193DE2196AF
:100EF000C770E5CF2091F0013091F1014091F201EE
:100F00005091F3016091F4017091F5018091F60127
:100F100081CECF93DF938091F601807F09F04BC0A3
:100F20008091F501882309F446C0E091B601509103
:100F3000B701C091F101D091F0016091F20170917F
:100F4000F30147E05E17B9F18E2F90E0E49FF001C6
:100F50001124E854FE4F2481222381F1489FF0019F
:100F6000499FF00D1124DF01A854BE4F11962C911A
:100F700011972C1323C02C912D1320C015962C9162
:100F8000159721111BC012962D913C91261B370BF2
:100F9000283C310598F48091F6018F708061809330
:100FA000F601E254FE4F80818F708061808380EF74
:100FB00091E0D0DD7EDFDF91CF910895FC01319685
:100FC000E770C0CF482F2091B6019091B70157E04C
:100FD000291302C080E0089530E0529FF001539F32
:100FE000F00D1124E854FE4F8181681306C0808102
:100FF000481303C085818111EECF2F5F3F4F2770CB
:10100000E7CFA4E1B0E0E7E0F8E00C940C238C011A
:1010100086E0F801DE011F9601900D928A95E1F7B6
:10102000F8018481E58090EFA92E91E0B92E90918E
:10103000F40191111AC08823A9F0EE2089F0C801AB
:10104000D5DDF82E882361F087E0F801D501019005
:101050000D928A95E1F7C50102DB5BDF4BDF59C0DA
:10106000C80178DDFF24F39454C0C080D180828011
:101070009380F090F5012091F2013091F301A401E9
:10108000421B530BFF2009F4E9C0483C510508F00E
:101090009CC0882309F43DC09091F1018091F60134
:1010A000282F207F09F056C09D1114C09091F001A7
:1010B000C91210C0E11048C08F7080618093F601A2
:1010C00019DF80EF91E046DD8091F601F80186831B
:1010D000F12C1FC0E11038C06D2D8C2D73DF6D2DEC
:1010E0008C2D70DFE82E8111F3CFCF86D88A8F85C3
:1010F000988994DE292F22952F70243078F49F70E0
:101100002230A0F09923B1F0F8019681907F91F4FC
:10111000FE2C8F2D6496ECE00C9428232A5F2F7010
:10112000223060F0C80116DDEF2CF2CF992311F0C8
:10113000882371F3805E883058F3F4CF803F40F30A
:10114000815F833078F7E4CF8091F60181608093EE
:10115000F601BECF9D1112C09091F001C9120EC0D0
:10116000E1100CC08683C801F5DC87E0F801A0EF30
:10117000B1E001900D928A95E1F770CFC80136DD9C
:10118000882309F46DCFEE2009F46ACF8091F6012F
:10119000803280F02091F0013091F1013987288769
:1011A0009B868A869091F4019C871D868E87CE014E
:1011B0000896D0DC87E0F801A0EFB1E001900D9235
:1011C0008A95E1F7A6DE96DE4DCF9091F601292FA4
:1011D000207F89F4682D9A8A898AA6017A899E2DB2
:1011E0000FDD80EF91E0B6DC87E0F50111928A9582
:1011F000E9F780DE6DCF882309F48BCF8091F10170
:101200008D110FC08091F001C8120BC0E11009C010
:101210009683C8019FDC87E0F50111928A95E9F772
:1012200078CFC801E3DC882309F41ACFEE2009F453
:1012300017CF8091F601803208F4BCCF2091F001E5
:101240003091F1013A8329839C828B829091F40141
:101250009D831E828F83CE010196ABCF483C510502
:10126000A8F5882309F4FECEFE2CEE2009F4F8CE72
:101270008091F1018D111EC08091F001C8121AC039
:101280008091F60180FD0DC0982F907F51F08683EC
:10129000903F09F468CF982F907F905F8F70892BD3
:1012A00061CF87E0F801A0EFB1E001900D928A953F
:1012B000E1F72FCFC8019ADC81117CCF8091F60134
:1012C00081608093F601C80145DC23CF682D9A8A9E
:1012D000898AA6017A899E2D93DC87E0F501119217
:1012E0008A95E9F7BBCEAEE0B0E0E9E7F9E00C940F
:1012F0001523288739874A875B876C877D878E8788
:10130000CE0108967EDE8823A9F06C85662339F02D
:10131000288539854A855B857D858E857BDC17E050
:101320008091B6019091B70189133BC02E96E3E0FE
:101330000C94312387E0FE013896DE01119601906E
:101340000D928A95E1F78C85882349F32091B701A6
:1013500030E0C9010196877099274091B60148177E
:10136000190691F097E0929FD001939FB00D112440
:10137000A854BE4FFE01319601900D929A95E1F767
:101380008093B70196DDCBCF14DC1092B701109299
:10139000B60187E0E0EFF1E0DF011D928A95E9F701
:1013A000BECF819FC001112488549E4F2ADE88231E
:1013B00009F4BCCFE091B6011E9FF0011124E8545E
:1013C000FE4F208131814281538164817581868104
:1013D00021DC8091B60190E0019687709927809377
:1013E000B6019ECF80911F028695869586950895B9
:1013F00080911F028770089590911F02977081E07D
:1014000009F480E0089580914B02089590914B0279
:10141000892B80934B020895809590914B029823DD
:1014200090934B02089510924B02089590914A02B6
:10143000892B80934A020895809590914A029823BF
:1014400090934A02089510924A0208950895FECF9B
:10145000089590912002292F282329F0809589232F
:1014600080932002F4CF08950895FECF08959091BF
:101470002102292F2823281721F0982B909321024D
:10148000F4CF089590912102292F282329F08095E7
:10149000892380932102E9CF089580912102882336
:1014A00021F01092210280E0E0CF0895CF93C09107
:1014B0004B0280914A02C82B80912102882329F097
:1014C000C82B0E94BE198111E8DF8C2FCF9108959F
:1014D000CF93DF93C0910201D0910301E7DF8883AE
:1014E000C0910201D091030148E050E067E172E051
:1014F000CE010E945123892B59F088E0FE01A7E11B
:10150000B2E001900D928A95E1F7CE010E94321966
:10151000DF91CF910895CF93DF93C0910001D091D7
:101520000101C4DF8983C0910001D091010140E233
:1015300050E067EF71E0CE010E945123892B59F0F2
:1015400080E2FE01A7EFB1E001900D928A95E1F7EC
:10155000CE010E943F19DF91CF9108950E941C197E
:10156000882329F080917D0287FF01C0D4CFB0CFBE
:101570000895FECF089590917E0292FF0EC098E0EC
:10158000899F90011124622B60931F027ADB809166
:101590001F02869586958695ECCF73CB10921F021D
:1015A00080E0E7CF90911F028095892380931F02EE
:1015B000282F277059F4891749F090917E0292FFE5
:1015C00005C086958695869566DBE8CF089590914F
:1015D0007E0292FB222720F9281749F080FB92F91E
:1015E00090937E028DE792E048D082E0DBCF0895B1
:1015F00080917E0282FB882780F991E08927E7CFDE
:1016000081E0E5CF80E0E3CF60E070E0CB017EC316
:1016100060E070E0CB0174D3F7CFA3E0B0E0E3E18A
:10162000FBE00C94162327D332D31B82CE01039602
:1016300045D381E08093B5014BD31A8219828A8108
:1016400084618A83CE01019654D30E94DA17E0DFC9
:101650002396E2E00C943223E0CF08951EC3089550
:101660000BD381110C94A11708951DC308952CC3A9
:1016700008952EC3089531C308953BC308954CC304
:101680000895A6E0B0E0E7E4FBE00C9414230E9488
:10169000C41B8C0180914C0290914D0280179107E0
:1016A00081F019821A820E94C41B682F49815A81D5
:1016B000792F80E090E00E94020310934D02009386
:1016C0004C022696E4E00C9430230E94D01B6093D9
:1016D000550270935602809357029093580260937C
:1016E00051027093520280935302909354020895D2
:1016F00008950895FDCF08950895FEDFFBCF089566
:10170000FECF08950895FEDFFBCF87E29EE038D438
:10171000F0DFF3CF81E00895FDCF0895FBCF08956A
:10172000089508950895FCDFFCDFFCCF99DF811157
:1017300001C092DF89E592E098DF8DE792E09BDFC0
:101740003FD495DF7CDA8091B40189CA0E94BB1B2B
:101750000E94E5177AD3EADF0E94E202D4CFA6E026
:10176000B0E0E5EBFBE00C940D23D6DF811109C05E
:1017700088DF0E94CA140E94EA022696EBE00C94CD
:10178000292375D310914E0280E0D1D218130CC0DA
:1017900010914F0281E0CBD2811306C0109150020C
:1017A00082E0C5D2181721F38091590281FDC5D27C
:1017B000B5DFC82E8EE4A82E82E0B82E10E0992462
:1017C0009394812FB4D2082FF50181915F010817FE
:1017D00029F1D02ED826F12CEE24E3948D2D8E21E4
:1017E000A9F0CC2099F0F9821A830E94C41B9C8333
:1017F0008B839D8291E0802F8E2109F490E04981B6
:101800005A816B817C818D810E940203F394EE0CDE
:10181000F3E0FF12E3CFF501319700831F5F133030
:1018200081F653DFA6CF1F93CF93DF931FD1EC0137
:10183000C11580E5D807F0F5C11580E4D80708F098
:101840009AC0C03ED10520F5CD3CD10508F082C03C
:10185000C83AD10578F4C53AD10508F073C0C13053
:10186000D10519F1209709F1C430D105F0F4D0E089
:10187000C0E01BC0C33CD105D0F7C85AD0E0CC0FA4
:10188000DD1FC85ADE4F0990D881C02DD4640DC029
:10189000C11580E2D80708F0CDC0C11581E0D80796
:1018A00008F05AC0C83ED10510F7CE01DF91CF91A4
:1018B0001F910895C03682E5D80718F5C03482E537
:1018C000D80708F068C0C03282E5D80708F05CC0CD
:1018D000C11582E5D80708F493C02C2F26952695CC
:1018E00080E2289F900111248C2F8370C1E0D0E00A
:1018F00002C0CC0FDD1F8A95E2F7C22BD32BDD6827
:10190000D4CFC03A82E5D80760F4C03882E5D80762
:1019100008F456C0CF71D0E0DC2FCC27C46FD06A5A
:10192000C4CFC03C82E5D80708F45FC0C03E82E562
:10193000D80708F09CCFDC2FCC27CC27DF71C06FF5
:10194000D06AB3CFC55AD0E0C257DE4FC881D0E0CD
:10195000D064ABCFD065A9CF8D2F2AD1182FCE015F
:10196000992784D0C12FD0E0DC2FCC27CC27DF7182
:10197000C82BD92B9ACFCE01992778D0CC27DF70EE
:10198000C82BD92BD06A91CFCF71D0E0DC2FCC27D8
:10199000C16FD06A8ACF2C2F26952695277080E2BA
:1019A000289F900111248C2F8370C1E0D0E002C0E9
:1019B000CC0FDD1F8A95E2F7C22BD32BDC6875CFE5
:1019C0002C2F26952695277080E2289F90011124C0
:1019D0008C2F8370C1E0D0E002C0CC0FDD1F8A9550
:1019E000E2F7C22BD32BDA6860CF8C2F8F71E0D057
:1019F000C82FD0E0DC2FCC27CC27DF71D06255CFA9
:101A00008C2F8F71D5D055E0D695C7955A95E1F7B3
:101A1000CF70D0E0DC2FCC27282F30E084FF06C029
:101A200044E0220F331F4A95E1F73327C22BD32B13
:101A3000D0693BCF8D2F8F71BBD0182FCE01992746
:101A400015D0C12FD0E0DC2FCC27CC27DF71C82BDD
:101A5000D92BD4CF462F733020F4633010F4672F86
:101A600016C390E080E00895F5DFDDCE8238910561
:101A7000B9F1B0F48133910509F47DC048F489329D
:101A8000910509F46DC08A32910509F47BC008956F
:101A90008533910509F45FC08933910509F10895F3
:101AA000833E9105D9F138F4803E910529F1823EBB
:101AB000910579F10895863E9105D9F1873E91050A
:101AC00009F43EC0843E910541F520917E0221FF3C
:101AD00024C080917D0284FD19C087EE90E00895B6
:101AE00020917D02237009F05AC020917E0223FFCD
:101AF00014C089E290E0089520917D0220FD38C055
:101B000030917E0230FF09C024FF43C090E080E0A6
:101B1000089520917D0222FDF7CF089520917D0246
:101B200022FD3AC030917E0230FD39C024FFF5CF4E
:101B3000EDCF20917D0223FFF0CF24FDE7CFCDCF65
:101B400020917D0223FD2EC030917E0231FFEECF29
:101B500084EE90E0089520917D0225FFDECFC9CF6D
:101B600020917D0225FD21C020917E0223FFD5CF4B
:101B700089E390E0D2CF20917D0226FFCECF8AE28A
:101B800090E0089520917D0226FFC7CF81E390E089
:101B9000089583EE90E0089582EE90E0089580EE3F
:101BA00090E0089586EE90E0089585E390E0089532
:101BB00090917D0292FF10C041E0282F24712430C3
:101BC00009F040E031E0282F2871283009F030E09A
:101BD000431711F02CE0822793FF10C041E0282F1B
:101BE0002471243109F040E031E0282F2871283198
:101BF00009F030E0431711F02CE0822730917E028B
:101C000030FF10C051E0282F2171213009F050E041
:101C100041E0282F2871283009F040E0541711F0D6
:101C200029E0822731FF10C041E0282F21712131A6
:101C300009F040E031E0282F2871283109F030E028
:101C4000431711F029E0822794FD877E089580E0F4
:101C50000895CF939C01205E3245C1E020323105CA
:101C600038F4FB01C581C11103C08F710E94340299
:101C70008C2FCF910895089590E080E00E946F230B
:101C800021E0833E9E4F09F020E0822F089563EE0D
:101C90007EEF90E080E00C949D236FEF7FEF90E06B
:101CA00080E00C949D23CF93DF93EC0182E090E0E1
:101CB0000E9467238883DF91CF910895FC016081A2
:101CC00082E090E00C94832383E090E00C946723FF
:101CD000682F83E090E00C948323CF93DF93EC0193
:101CE00084E090E00E946F2399838883DF91CF91F5
:101CF0000895FC016081718184E090E00C949D2343
:101D0000AB01BC018FE090E00C949523AB01BC01CA
:101D100083E190E00C949523682F8EE090E00C9482
:101D200083230895FECF08950895FECF0895E82FE8
:101D3000F0E0EE57FD4F80810895089580EA8A957E
:101D4000F1F7089500C00895F9CF0895F894E82FA9
:101D5000E295EF70F0E031A1282F2F7081E090E044
:101D600001C0880F2A95EAF7982F9095932391A3A5
:101D700092A1892B82A37894089582E3E7DF83E31D
:101D8000E5DF86E3E3DF85EFE1DF86ECDFDF84E399
:101D9000DDCFB0E0A0E0EFECFEE00C941023EC010E
:101DA000D62E062F10E0C8018C569E4F7C01FC01F8
:101DB00080818F3F09F442C0F894E82FE295EF70DC
:101DC000F0E091A18F7021E030E001C0220F8A95F0
:101DD000EAF7892F822B81A382A12095282322A3B1
:101DE0007894B0DFE1E9F1E044E951E031E0C12C61
:101DF00021912F3F41F1A22FA295AF70B0E09096B4
:101E00008C9190E02F7002C0959587952A95E2F706
:101E100080FD19C0832FC82A330F4E175F0741F783
:101E2000F70180818F3F09F091DF61E0C11001C0AF
:101E300060E08D2D89DFC00FD11FC882CDB7DEB71E
:101E4000E8E00C942C2380E0E6CF97DF83E0E2E823
:101E5000F2E0DF01982F1D929A95E9F7EFE7F2E0A3
:101E6000DF011D928A95E9F783E03BD05BCFA3E0C9
:101E7000B0E0EDE3FFE00C94152319821A821B8277
:101E800060E0CE01019685DF61E0CE01019681DF41
:101E900062E0CE0101967DDF43E050E0BE016F5F5E
:101EA0007F4F8FE792E00E94512321E0009709F4D1
:101EB00020E0892B49F089819A81AB8180937F0250
:101EC00090938002A093810243E062E872E08FE782
:101ED00092E008D0182F29DF812F2396E3E00C949D
:101EE00031230895B0E0A0E0E8E7FFE00C94102370
:101EF0006C017B01042FC22F222379F081E08093B3
:101F00005C020E94C41B90935B0280935A0280E0A3
:101F1000CDB7DEB7E8E00C942C23D0915C02DD2332
:101F2000B1F380915A0290915B020E94551B059774
:101F300070F310E0A801B601C7010E945123892B5C
:101F400031F0A801B601C7010E945E23CD2F109287
:101F50005C028C2FDDCF03CC08950E945E1B0E9493
:101F6000811DD3DB0E94991DF1DB0E94A21D0E94FE
:101F7000A51DF1DF0E94BB1D0E946A1CD4DBF7CFB8
:101F80009093A7018093A60108950C94B119089528
:101F900065CB089580E0CBDE8170089568DF2FEF78
:101FA00086E791E0215080409040E1F700C00000BA
:101FB0005EDFF0DF882319F0EBDF0C94001C08953E
:101FC000EDCF0895A1E0B0E0E8EEFFE00C9412231D
:101FD0007C01FC0160817181828193818E010F5FA0
:101FE0001F4F21E030E040E050E098D1F7018081C0
:101FF0009181A281B3810196A11DB11D808391833E
:10200000A283B38389812196E6E00C942E2384E099
:102010000895CDC00895FAC008951F93CF93DF931C
:10202000C4D0D0E0C0E010C0412F6C2F8D2F0E9493
:10203000A9019C01412F6C2F8D2FE8D01F5F133019
:1020400099F7CF5FC33011F010E0EECFDF5FD430EF
:1020500049F7DF91CF911F9108950F931F938A0144
:102060009B0150E040E0BC0190E080E0F5D01F9182
:102070000F9108950F931F938A019B0150E040E058
:10208000BC0190E080E015D11F910F91089584303C
:1020900028F4633018F4433008F489C090E080E0FD
:1020A000089580E1089535D1CB0108950F931F93D2
:1020B0008A019B0150E040E0BC0190E080E02ED11D
:1020C0001F910F9108950F931F938A019B0150E078
:1020D00040E0BC0190E080E056D11F910F9108953F
:1020E00065D094C14F925F926F927F92BF92CF92D0
:1020F000DF92EF92FF920F931F93CF93DF9300D065
:1021000000D0CDB7DEB7B82E8FE08B1518F101D116
:1021100061507109810991098E010F5F1F4F21E004
:1021200030E040E050E0FAD08981811113C0F1D055
:102130002B013C01C12CD12C7601B1101DC0C982EC
:10214000DA82EB82FC8240E0BE016F5F7F4F82EE5D
:102150009FE0A5D50F900F900F900F90DF91CF913A
:102160001F910F91FF90EF90DF90CF90BF907F90E5
:102170006F905F904F900895C414D504E604F7045F
:1021800049F38E010F5F1F4F21E030E040E050E047
:10219000C701B601C3D08981811101C0BA948FEF04
:1021A000C81AD80AE80AF80AC8CF089508950F9304
:1021B0001F93CF93DF93843030F5633020F54330A5
:1021C00010F5C42FD0E0CC0FDD1F26E0629FC00DBC
:1021D000D11D112432E1839FC00DD11D1124CE01E8
:1021E00089960E946723082F10E0102F0027CE0148
:1021F0008A960E9467239801282BC901DF91CF910D
:102200001F910F91089590E080E0F8CF1F93CF9336
:10221000DF93122F8430E0F46330D0F44330C0F405
:10222000C42FD0E0CC0FDD1F96E0699FC00DD11DFB
:10223000112492E1899FC00DD11D1124632FCE017D
:1022400089960E948323612FCE018A960E94832360
:10225000DF91CF911F910895B0E0A0E0E2E3F1E1BA
:102260000C940C236B017C01E8014B015C01820E94
:10227000931EA41EB51EC6018996C814D904EA048B
:10228000FB0429F4CDB7DEB7ECE00C94282328E456
:10229000C216D104E104F10450F40E94672388833C
:1022A00021968FEFC81AD80AE80AF80AE4CF1882F4
:1022B000F7CFB0E0A0E0EFE5F1E10C940C236B0167
:1022C0007C01EB014B015C01820E931EA41EB51E26
:1022D0009601C6018996C814D904EA04FB0429F4BE
:1022E000CDB7DEB7ECE00C94282348E4C416D10443
:1022F000E104F10440F42C1B3D0BF801E20FF31F45
:1023000060810E9483238FEFC81AD80AE80AF80A6E
:10231000DFCF6FE873E080E090E00895B0E0A0E0E8
:10232000E4E9F1E10C9408236B017C0129013A01F5
:102330004B0121E7820E911CD0E0C0E0C4018C0F5C
:102340009D1FAE0170E060E04415550566057705F8
:1023500028F0CDB7DEB7E0E10C9424234C0D5D1DD1
:102360006E1D7F1D5801AC0EBD1E4F3853406105D8
:10237000710530F40E946723F50180832196DECF3A
:10238000F5011082FBCF4F925F926F927F92AF92D6
:10239000BF92CF92DF92EF92FF920F931F93CF9352
:1023A000DF936B017C0129013A015B0121E7A20E59
:1023B000B11CD0E0C0E0C5018C0F9D1FAE0170E0E4
:1023C00060E0441555056605770578F0DF91CF91FB
:1023D0001F910F91FF90EF90DF90CF90BF90AF9043
:1023E0007F906F905F904F9008954C0D5D1D6E1D16
:1023F0007F1D4F3853406105710530F4F801EC0F33
:10240000FD1F60810E9483232196D5CFA0E1B0E01B
:10241000ECE0F2E10C940823CE0101965C0180E12E
:10242000F50111928A95E9F709E310E09FE8492E3A
:1024300093E0592E612C712C21E7822E912C6201A0
:10244000F1E14F165104610471042CF080E1C82EB3
:10245000D12CE12CF12CA601B401C5010E947423FA
:102460008C0C9D1C0D2C000CEE08FF084C185D0810
:102470006E087F080150110911F76096E0E10C9495
:102480002423CF93DF93EB0186319C4709F50E940B
:10249000030A9D81992391F08A7A91E009F490E0F2
:1024A00090935D02811108C089E20E946A1A56D891
:1024B00080E0DF91CF91089585E3F7CF80915D02B1
:1024C000811104C089E20E94811AF1CF85E3FBCF1C
:1024D00081E0EFCFCF93DF93EC01FB01858188236F
:1024E00009F4CBC09E0130572332310508F0ABC050
:1024F0008DE792E0C0D8FE01E150F047E232F105ED
:1025000020F4E154FC4D0C94F92280917D0281600D
:1025100080937D0292C080917E02886080937E02CB
:102520008CC080917D028260F3CF80917D028460B7
:10253000EFCF80917D028860EBCF80917E02816039
:10254000EDCF80917E028260E9CF80917D02806133
:10255000DFCF80917D028062DBCF80917D0280643D
:10256000D7CF0E94D90580917D028068D1CF80911C
:102570007D028C60CDCF80917E028360CFCF809131
:102580007D028E7FC5CF80917E02877FC7CF8091ED
:102590007D028D7FBDCF80917D028B7FB9CF8091F1
:1025A0007D02877FB5CF80917E028E7FB7CF8091ED
:1025B0007E028D7FB3CF80917D028F7EA9CF8091E7
:1025C0007D028F7DA5CF80917D028F7BA1CF0E9460
:1025D000D90580917D028F779BCF80917D02837F8B
:1025E00097CF80917E028C7F99CF80917D0282FB74
:1025F000992790F921E0922790FB82F990FB83F9CB
:1026000087CF80917E02982F909591708E7F892B35
:1026100090FB81F983CF90917D02892F8F7B96FF6C
:10262000806476CF0E94D90590917D02892F97FB17
:1026300087F980586DCF81E022D88DE792E01DD8D0
:102640000E94D90580E0DF91CF91089580E0F4CF1A
:1026500090917D02892F8F7E94FF806159CF909158
:102660007D02892F8E7F90FF816052CF90917E02F4
:10267000892F877F93FF886051CF81E0E4CF282F97
:1026800035EB2303C001112497FF04C08058910942
:10269000892F089580589F4FFBCF8091640280FF5F
:1026A0000DC06091090170E0660F771F60387105F9
:1026B00070F56115710569F1862F089581FF07C0D6
:1026C0006091090184E0689FB0011124EFCF60910F
:1026D000090182FD0AC0809163028823A9F020913C
:1026E000080160910901821710F088E0ECCF869F05
:1026F000C001112433E0880F991F3A95E1F7622F4A
:1027000070E00E94E622D2CF68E070E0D5CF8FE77C
:10271000089581E008958091640280FF0CC060916B
:10272000050170E07595679575956795611571055B
:1027300049F1862F089581FF06C06091050170E080
:1027400075956795F3CF6091050182FD0BC090915F
:1027500062029923A1F0609104018091050196170E
:1027600038F0682F70E06038710500F38FE7089546
:10277000899FC001112470E00E94E622F4CF61E03D
:1027800070E0D7CF81E008958D3C29F486DF8195F4
:102790008093680208958E3C11F47FDFF9CF8F3C5F
:1027A00029F47BDF8195809367020895803D11F4C1
:1027B00074DFF9CF893D21F4AEDF8093690208957B
:1027C0008A3D19F4A8DF8195F8CF8B3D29F4A3DF6A
:1027D000819580936A0208958C3D11F49CDFF9CFB6
:1027E0009FE2980F983070F4815D990B21E030E002
:1027F00001C0220F8A95EAF780916602822B8093AE
:10280000660208958D3D31F4809164028160809369
:10281000640208958E3D21F4809164028260F7CFB6
:102820008F3DB9F7809164028460F1CF40916702D7
:102830008D3C59F48091680287FF0DC010926802A8
:1028400041110BC01092630208C08E3C81F480914C
:10285000680218169CF3442381F0809169029091DC
:102860006A02892B09F05AC01092620208958F3CC7
:1028700049F447FFF0CF10926702809168028111FE
:10288000ECCFE0CF803D19F41416ACF3E4CF909177
:102890006902893D29F41916F4F610926902DBCF1A
:1028A0008A3D19F497FFD7CFF8CF90916A028B3DFC
:1028B00029F497FFD0CF10926A02CDCF8C3D19F446
:1028C0001916CCF3C8CF9FE2980F983090F4815D31
:1028D000990B21E030E0B90102C0660F771F8A959D
:1028E000E2F7CB018095909166028923809366027E
:1028F000B2CF8D3D31F4809164028E7F809364026B
:10290000AACF8E3D21F4809164028D7FF7CF8F3D59
:1029100009F0A1CF809164028B7FF0CF089534D766
:102920009C019091670280916802982B21F030936E
:102930006102209360029091690280916A02982B53
:1029400021F030935F0220935E0285E692E0A9C4F5
:1029500086E0E5E6F2E0DF011D928A95E9F7109244
:10296000630210926202109264020895FC01828157
:1029700081110EC0838181110BC08481811108C037
:1029800091E08581811101C090E0892F81700895C7
:1029900081E0FCCFA6E0B0E0E0EDF4E10C9415237B
:1029A00086E0E5E6F2E0DE01119601900D928A954F
:1029B000E1F7109267021092680210926902109279
:1029C0006A028B819C81892B81F0809160029091B9
:1029D00061026BD6AC01909163029923A9F18091B9
:1029E0000A018417150608F43CC08D819E81892B4D
:1029F00089F080915E0290915F0257D6AC01909170
:102A00006202992309F463C08091060184171506B8
:102A100008F46BC0BE016F5F7F4F85E692E0A1D5E1
:102A2000811104C085E692E0A1DF811178DF86E0A4
:102A3000FE013196A5E6B2E001900D928A95E1F78C
:102A40002696E3E00C94312320910B018AE0289F25
:102A5000900111242417350740F69F5F909363027D
:102A600002C09F3FD1F71B81112351F016DE9FEF6B
:102A700011160CF491E0899F802D11248093670238
:102A80001C81112351F009DE9FEF11160CF491E027
:102A9000899F802D1124809368028091670288238A
:102AA00009F4A3CF10916802112309F49ECFE7DD4A
:102AB000882349F080936702812FE1DD882329F084
:102AC0008093680292CF81E0F5CF81E0F9CF209129
:102AD00007018AE0289F900111242417350708F088
:102AE00099CF9F5F9093620202C09F3FD1F71D81F3
:102AF000112351F010DE9FEF11160CF491E0899F25
:102B0000802D1124809369021E81112351F003DE70
:102B10009FEF11160CF491E0899F802D1124809372
:102B20006A0280916902882309F474CF10916A02C5
:102B3000112309F46FCFA3DD882349F08093690244
:102B4000812F9DDD882329F080936A0263CF81E085
:102B5000F5CF81E0F9CFB0E0A0E0E1EBF5E10C9436
:102B60000F23E82FF0E0E254FF4FB490282F269572
:102B70002695269530E0F901E25AFE4F04918770C0
:102B800010E0082E02C0159507950A94E2F701702F
:102B90001127F901E25BFE4FE490F12C082E02C0F0
:102BA000F594E7940A94E2F791E0E922FF24F90111
:102BB000E25CFE4FC491D0E002C0D595C7958A95DE
:102BC000E2F7C170DD27C62ED12C0115110549F59C
:102BD000E114F10431F086EE0E944003C601009733
:102BE00071F5B6018B2D0E94B203C601009779F5ED
:102BF000E114F104A1F50115110531F081EE0E94F7
:102C00008503C6010097C9F5CD2B31F08CE20E94F7
:102C1000C803C114D104C9F5CDB7DEB7E9E00C94FF
:102C20002B2381EE0E944003C601009789F2EFE951
:102C3000FFE03197F1F700C000000197F6CFEFE910
:102C4000FFE03197F1F700C000000197C8CFEFE92E
:102C5000FFE03197F1F700C000000197C7CF86EE83
:102C60000E948503C601009731F2EFE9FFE031973A
:102C7000F1F700C000000197F6CFEFE9FFE03197D0
:102C8000F1F700C000000197BDCF8FE99FE00197E9
:102C9000F1F700C0000091E0C91AD108BACFB0E046
:102CA000A0E0E5E5F6E10C940F238C017B01D42F25
:102CB0008AE0B82EC701F80109958823A9F0813070
:102CC00009F058C0C701F8010995C82F813089F46F
:102CD000C701F80109950E94C8038D2F90E0009765
:102CE00009F040C0C111E6CFCDB7DEB7E9E00C94E2
:102CF0002B23823031F4C701F80109950E9440036B
:102D0000ECCF833031F4C701F80109950E948503A7
:102D1000E4CF843011F7C701F8010995C82FD12CF1
:102D2000C12C2C2F2053330BC9012A30310568F0F8
:102D3000C114D10491F28FE99FE00197F1F700C02F
:102D4000000091E0C91AD108F3CFBC9C9001BD9C52
:102D5000300D11246C01C20ED31EC701F801099574
:102D6000C82FDFCFEFE9FFE03197F1F700C0000097
:102D70000197B5CF6D2FEFDE9DCF0F931F93CF93AC
:102D8000DF93C42FD22FFC0185818823C1F04093AB
:102D90006D02FAD490936C0280936B0280E28C0FE8
:102DA000883040F4C77081E001C0880FCA95EAF707
:102DB0000E94CF03DF91CF911F910F910895109141
:102DC0006D02141331C080916B0290916C026DD42E
:102DD000883C910548F5C0E2CD0F1D17B9F080E29F
:102DE000810F883040F4177081E001C0880F1A9578
:102DF000EAF70E94D403C83048F481E09D2F977011
:102E000001C0880F9A95EAF70E94CF03802F0E9495
:102E1000C803C83078F6D77081E001C0880FDA9512
:102E2000EAF70E94D403C6CF80E28C0F883010F6F8
:102E3000C77081E001C0880FCA95EAF7F2CF0F93FF
:102E4000DB0188519C478730910598F5FC01EF51D3
:102E5000FC4D0C94F92206E221EE41EE6AE17CE79A
:102E6000CD018BDF80E00F91089507E225EE45EE5E
:102E70006BE17CE7F5CF06E221EE40EE68E17CE70E
:102E8000EFCF07E225EE44EE69E17CE7E9CF06E209
:102E900021EE42EE6CE17CE7E3CF07E225EE46EE61
:102EA0006DE17CE7DDCF08E221E045EE6EE17CE7F5
:102EB000D7CF15968C91882319F010926D02D3CF3D
:102EC00081E0D1CF1F93CF93DF9387372CE7920711
:102ED00051F0C1E088379C47B9F4FB01C581CC2390
:102EE00029F129D005C0FB01C581CC2391F020D068
:102EF0000E94410623D0D82F1ED0C82F19D04D2FA5
:102F00006C2F0E945207C0E08C2FDF91CF911F9150
:102F100008950ED00E944B0611D0182F0CD0D82F38
:102F200007D0412F6D2F0E945207EECF04D0F2CF71
:102F300080910E01089580910D01089580910C01FA
:102F40000895A3E0B0E0E7EAF7E10C941623AE01A0
:102F50004F5F5F4FBE016E5F7F4FCE0103961ED164
:102F60008B81863231F48A81813019F499819232D1
:102F700009F080E081702396E2E00C9432238823EC
:102F800021F042E261E086E22FC14FEF6FEF8FEF59
:102F9000FBCF08950895CF92DF92EF92FF926B01DD
:102FA0007C01F8DFC701B6013ED1FF90EF90DF90C2
:102FB000CF900895F2D080E0E2DF60E070E0CB01D6
:102FC000EADF2BD88DD881E0DACFE3DF23D1E2DF4F
:102FD000B8DF811101C0EECF089508959C01FB0177
:102FE0008581882349F0A90157574038510528F4B5
:102FF000822F78D880E0089581E008952FEFFC01BA
:1030000020830895FBCF089580E00895B0E0A0E00C
:10301000ECE0F8E10C941023EC01E62EF5DF8111D1
:1030200010C0E881E150E331B8F4F0E0E851FC4D24
:103030000C94F92219828CE08A836E2DCE010E94B5
:10304000C50FCDB7DEB7E8E00C942C238981823020
:10305000B9F028F4813061F08FEF8883EECF8330B0
:1030600089F08430C9F71A821B821C821D82E5CF49
:1030700097D30E94FF226A837B838C839D83DDCF5D
:10308000C9D0F7CF8A81082F10E06E0193E0C90EF6
:10309000D11C9CE1F92EF80E0330110570F6802F3B
:1030A0000E94970EF60181936F010F5F1F4FF01280
:1030B000F3CFC3CF8981823029F0853069F68A81C8
:1030C0008CDFBBCF6A817B818C819D810E94FF2236
:1030D00062DFB3CF4B816A8189810E9409109827F2
:1030E000892798279D838C83A8CF2C813D81322707
:1030F000232732274B816A8189810E940B109DCF43
:103100000E940D109ACF6E2DCE017CDF96CF0E94CB
:103110005110898392CF0E945310982789279827AE
:103120009A8389838ACF6B8170E089819A81AE010D
:103130004C5F5F4F9827892798270E9456107DCFB4
:103140006B8170E089819A81AE014C5F5F4F982757
:10315000892798270E94631070CF0E9470106DCF4E
:103160000E940710D6CF6B8170E089819A81AE01F1
:103170004C5F5F4F9827892798270E942D105DCFBD
:103180006B8170E089819A81AE014C5F5F4F982717
:10319000892798270E943A1050CF0895EF92FF9206
:1031A0000F931F93CF93DF937C018B01EA01892B4F
:1031B00031F085E290E00E946723F70180830115DA
:1031C000110531F086E290E00E946723F8018083C8
:1031D000209729F087E290E00E9467238883CDB78B
:1031E000DEB7E6E00C942E23CF93DF93D62FC42FC7
:1031F000682F85E290E00E9483236D2F86E290E0A5
:103200000E9483236C2F87E290E00E948323DF914A
:10321000CF91089588E290E00E946723682F70E0C4
:1032200090E080E0089588E290E00C9483239093EE
:103230007302809372020895FFD191E0813009F00A
:1032400090E0892F0895E0917202F0917302309717
:1032500039F00190F081E02D309711F00995089533
:1032600080E00895E0917202F0917302309731F09E
:103270000280F381E02D309709F009950895E091DF
:103280007202F0917302309759F024813581232B1B
:1032900039F026E0DC012C930480F581E02D0995BE
:1032A0000895E0917202F0917302309759F02681EF
:1032B0003781232B39F022E0DC012C930680F78143
:1032C000E02D09950895A3E0B0E0E9E6F9E10C945A
:1032D0001623209170023091710228173907B1F03E
:1032E0009093710280937002E0917202F0917302E8
:1032F000309761F00084F185E02D309739F023E0BC
:1033000029839B838A83CE01019609952396E2E067
:103310000C943223A3E0B0E0E0E9F9E10C94162329
:1033200020916E0230916F0228173907B1F0909307
:103330006F0280936E02E0917202F09173023097F7
:1033400061F00084F185E02D309739F024E0298385
:103350009B838A83CE01019609952396E2E00C9423
:103360003223E0917202F0917302309731F00284BF
:10337000F385E02D309709F009950895CF93DF93F9
:10338000C0910201D0910301229656DF882381F07B
:1033900080917D0287FF0CC0C0910001D091010196
:1033A00022969EE180E0915028F4DF91CF9108951C
:1033B00096E0F8CF29912223B1F38F5FF4CFCF931A
:1033C000C82F811102C080E023C036DF882311F1AD
:1033D00080917D0287FF1EC0EC2FE695E695E6956D
:1033E000EE3188F78091000190910101E80FF92FEB
:1033F000F11D228130E0C77081E090E002C0880FAB
:10340000991FCA95E2F72823392381E0232BD9F2AB
:10341000CF9108958091020190910301FC013296B1
:10342000089621912C1721F0E817F907D1F7CBCF97
:1034300081E0EECF9C01FC0132969FEF80E041914C
:10344000461751F09F3F19F4411101C0982F8F5F2B
:103450008630A9F79F3F09F40895290F311D97FD84
:103460003A95F90162830895FC01329608962191FC
:10347000261303C0DF0111971C92E817F907B9F76B
:103480000895E62FE695E695E695EE3168F4E80FA7
:10349000F92FF11D677021E030E001C0220F6A951D
:1034A000EAF78281822B82830895E62FE695E695DE
:1034B000E695EE3170F4E80FF92FF11D677021E009
:1034C00030E001C0220F6A95EAF720958281282317
:1034D00022830895CF93C82FAFDE6C2F882359F035
:1034E00080917D0287FF07C08091000190910101CA
:1034F000C8DFCF91089580910201909103019ADF76
:10350000F8CFCF93C82F98DE6C2F882359F0809185
:103510007D0287FF07C08091000190910101C5DF06
:10352000CF91089580910201909103019DDFF8CF22
:1035300083DE882379F080917D0287FF0BC0E091C4
:103540000001F091010132968EE1DF011D928A9512
:10355000E9F70895E0910201F0910301329686E0C7
:10356000F4CFDC01FB0111969C9111978181981396
:1035700022C012968C911297882319F09281891398
:103580001AC013968C911397882319F0938189138D
:1035900012C015968C911597882319F0958189137F
:1035A0000AC014969C91992321F081E0248129136B
:1035B00003C080E001C081E0817008950895FECFCE
:1035C000089581110CC081E08093120160910F0178
:1035D000709110018091110190911201F0CF82E061
:1035E000F3CF83E08093120160910F01709110017D
:1035F0008091110190911201E2CFE3CF089581E013
:103600008093120160910F0170911001809111015E
:1036100090911201D4CFF3CF089591E0811101C0B0
:1036200090E09093110160910F01709110018091D1
:10363000110190911201C3CF8091110108958093DF
:10364000100160910F017091100180911101909112
:103650001201B5CF80911001089580930F01609100
:103660000F01709110018091110190911201A7CF6B
:1036700080910F01089508950895FECF089508954B
:103680000895F9CF0895CF93FADF0E94370FF8DF3E
:10369000C0E08C2F0E94970E811105C0CF5FC33010
:1036A000C1F7CF91089581E0FCCFCF93DF93EC0178
:1036B0006BD08C1B9D0BDF91CF91089585B78068EF
:1036C00085BF85B7806885BF08951F921FB61F927A
:1036D00011248F939F93AF93BF93809174028111B4
:1036E00013C08091850290918602A0918702B091CB
:1036F00088024196A11DB11D809385029093860298
:10370000A0938702B0938802BF91AF919F918F9150
:103710001F901FBE1F90189580918D02843031F14B
:103720000E94CA021092740288E190E020E40FB671
:10373000F894A895809360000FBE2093600083B733
:10374000817F846083BF83B7816083BF78948895CD
:1037500083B78E7F83BF0FB6F894A89580916000E1
:10376000886180936000109260000FBE08950E94EF
:10377000D9050C94CE0282E084BD93E095BD9AEF0A
:1037800097BD80936E0008952FB7F89480918502BD
:1037900090918602A0918702B09188022FBF089570
:1037A0002FB7F8946091850270918602809187020C
:1037B000909188022FBF089578941F921FB61F9290
:1037C00011248F939F93AF93BF9380918502909123
:1037D0008602A0918702B09188020196A11DB11DB9
:1037E0008093850290938602A0938702B09388020B
:1037F000BF91AF919F918F911F901FBE1F90189501
:1038000087E797E7909301088093000888E19AE0A2
:103810000FB6F894A895809360000FBE9093600057
:10382000FFCF88E19AE00FB6F894A89580936000E6
:103830000FBE90936000FFCF9B01BA0190918D0263
:103840009430E1F48F708093E9009FEF8091E8005D
:10385000915085FD06C085ED8A95F1F70000911124
:10386000F5CF8091E80085FF09C050E040E0C90134
:10387000F6D18091E8008E778093E8000895603259
:1038800029F440E250E0BC0182E0D6CF089543E045
:1038900050E0BC0184E0D0CF46E050E0BC0184E0C1
:1038A000CBCF40E250E0BC0184E0C6CFCF93DF93A2
:1038B000EC01C2DE48E050E0BE0181E0BDDF88E0FF
:1038C000FE01A5E7B2E001900D928A95E1F7DF9144
:1038D000CF910895A0E2B0E0EFE6FCE1A7C68091A9
:1038E0008D028430F9F483E08093E9008091E80050
:1038F00082FF18C08091E80090E085FF08C050E08A
:1039000040E060E270E0CE010196F6D191E0809156
:10391000E8008B778093E800992321F060E2CE01E4
:10392000019674DBA096E2E09DC680918C02811125
:1039300007C070D3C7D38091E20084608093E20017
:10394000089510928C0208955ADE81E066CE60914F
:10395000890281E0611101C080E043CE90918D0227
:1039600081E0943009F080E06091890246CE42E027
:1039700061EC81E0CBD242E261EC84E0C7D242E26A
:1039800061EC82E0C3D242E260EC83E0BFD290916E
:103990008D0281E0943009F080E06091890211CEBF
:1039A00080918F02833009F460C030F48130D1F10E
:1039B000823009F496C008958A3009F485C08B30AE
:1039C00009F46DC0893009F04FC080918E028132B8
:1039D00009F04AC08091920290919302009719F0E9
:1039E000029709F041C08091E800877F8093E8004A
:1039F0008091E80082FF34C09091F3008091F20042
:103A0000029731F48091F100813011F0863019F481
:103A10008091F10014DE8091E8008B778093E800BC
:103A2000A9D222C080918E02813AF1F48091E800FF
:103A3000877F8093E8008091920290919302892B76
:103A400059F468E085E792E070E0A3D18091E80046
:103A50008B778093E800089560E090E080E0F4CFF9
:103A600080918D028111C4CF089580918E02813A98
:103A7000D9F78091920290919302892BA9F78091B6
:103A8000E800877F8093E8008091E80080FFFCCF0A
:103A9000D3DD8093F1008091E8008E77BFCF8091D5
:103AA0008E02813209F78091920290919302892BC4
:103AB000D9F68091E800877F8093E8005BD28091FF
:103AC0009002ABDD0C94D90580918E02813261F6B3
:103AD0008091E800877F8093E8004CD2809191022A
:103AE000BCCD80918E02813A09F0BECF8091E80072
:103AF000877F8093E8008091E80080FFFCCFB8DDED
:103B0000C8CF84B7877F84BF0FB6F894A8958091FB
:103B10006000886180936000109260000FBE80E8B2
:103B200090E00FB6F89480936100909361000FBE0F
:103B300072CD70D2C7D2E2EEF0E0808184608083E3
:103B400078942AC583E191E072CB80918D02853013
:103B500029F480918D02853011F009CE0895DCDDC5
:103B600092DD8823B1F380918B02882391F361D099
:103B70000E94D905EECF08959A0140919402509188
:103B8000950200C0492F55274330510521F168F4B3
:103B90004130510509F443C04230510509F444C095
:103BA00090E080E050E040E026C04132510551F104
:103BB00042325105A9F76330710590F7FB01EE0F12
:103BC000FF1FE656FE4F4081518169567E4FFB0133
:103BD000808190E010C099278130910581F0009795
:103BE00029F00297E9F6EEE6F1E002C0E8E8F1E03C
:103BF000849190E0AF01F901518340830895E8E793
:103C0000F1E0F6CF6330710558F6660F771FFB01C0
:103C1000E056FE4F4081518189E090E0ECCF82E197
:103C200090E047EE51E0E7CF8BE590E04CE851E0C3
:103C3000E2CF80E189BD82E189BD09B400FEFDCFFC
:103C40008091D8008F7D8093D8008091E0008260C1
:103C50008093E0008091E00081FDFCCF0895AF9259
:103C6000BF92CF92DF92FF920F931F93CF93DF9378
:103C70006C01EB018A019DD1F82E811123C0011541
:103C8000110539F0F80180819181C81BD90BC80E4C
:103C9000D91EB12CA12C2097A9F08091E80085FDB8
:103CA00021C08091E8008E778093E800011511050E
:103CB000A1F0F80180819181A80EB91EB182A08285
:103CC00085E0F82E8F2DDF91CF911F910F91FF90FE
:103CD000DF90CF90BF90AF9008956BD18823D9F239
:103CE000F82EF0CFF60181916F018093F1002197BA
:103CF000FFEFAF1ABF0ACFCFAF92BF92CF92DF9242
:103D0000FF920F931F93CF93DF936C01EB018A0116
:103D100050D1F82E811123C00115110539F0F80199
:103D200080819181C81BD90BC80ED91EB12CA12C42
:103D30002097A9F08091E80085FD21C08091E800DE
:103D40008B778093E80001151105A1F0F8018081BF
:103D50009181A80EB91EB182A08285E0F82E8F2D28
:103D6000DF91CF911F910F91FF90DF90CF90BF9087
:103D7000AF9008951ED18823D9F2F82EF0CF80910C
:103D8000F100F60181936F012197FFEFAF1ABF0A8F
:103D9000CFCFFC01809194029091950286179707EE
:103DA000A0F06115710529F49091E8009E77909339
:103DB000E80090E06115710551F4911108C08091FF
:103DC000E80082FF34C080E00895BC01F2CF80910A
:103DD0008D028823C1F18530C1F18091E80083FD17
:103DE00030C08091E80082FDEACF8091E80080FF3A
:103DF000E1CF8091F3002091F200382F6115710519
:103E000019F02830310558F091E02830310509F0DB
:103E100090E02091E8002E772093E800CBCF8191AD
:103E20008093F100615071092F5F3F4FE7CF809180
:103E30008D02882341F0853041F08091E80083FFB6
:103E4000BECF81E0089582E0089583E00895FC01EB
:103E5000809194029091950286179707A0F06115C2
:103E6000710529F48091E8008E778093E80090E056
:103E70006115710551F4911108C08091E80082FF2D
:103E800035C080E00895BC01F2CF80918D02882377
:103E9000C9F18530C9F18091E80083FD31C080917E
:103EA000E80082FDEACF8091E80080FFE1CF8091B9
:103EB000F3002091F200382F6115710519F02830B8
:103EC000310558F091E02830310509F090E08091FB
:103ED000E8008E778093E800CBCF84918093F10047
:103EE0003196615071092F5F3F4FE6CF80918D026F
:103EF000882341F0853041F08091E80083FFBDCFF9
:103F000081E0089582E0089583E00895982F973026
:103F100028F08F708093E90081E008959093E90084
:103F2000242F762F50E0981731F07091EC002091FB
:103F3000ED005091F00021FD02C09F5FE8CF30916D
:103F4000EB003E7F3093EB003091ED003D7F3093EE
:103F5000ED003091EB0031603093EB007093EC009A
:103F60002093ED005093F0002091EE0027FDE5CF67
:103F700080E0089580918E0287FF13C08091E80051
:103F800082FF06C08091E8008B778093E80004C030
:103F900080918D028111F2CF089580918D02882346
:103FA000D9F38091E80080FFF8CF8091E8008E7708
:103FB000ECCF2091E4003091E50095E6A901209135
:103FC000EC00822F817020FF06C08091E80080FF06
:103FD00006C080E008952091E80022FD1AC080917B
:103FE0008D02882389F0853089F08091EB0085FD72
:103FF0000FC02091E4003091E50042175307F9F219
:104000009150E1F684E0089582E0089583E00895F8
:1040100081E0089567D06ED0E0EEF0E080818160AD
:104020008083E8EDF0E080818F77808319BCA7ED75
:10403000B0E08C918E7F8C9380818F7E80831092F4
:104040008C0208950F931F93CF93DF934BD052D0E0
:10405000C8EDD0E088818F778883888180688883E5
:1040600088818F7D888319BC10928D0210928902FD
:1040700010928B0210928A0200EE10E0F80180810B
:104080008B7F808388818160888342E060E080E06C
:104090003DDFE1EEF0E080818E7F8083E2EEF0E0B4
:1040A000808181608083808188608083F801808145
:1040B0008E7F8083888180618883DF91CF911F917B
:1040C0000F910895E8EDF0E080818F7E8083E7ED29
:1040D000F0E080818160808384E082BF81E0809312
:1040E0008C02B0CFE8EDF0E080818E7F808310926B
:1040F000E20008951092DA001092E10008951F92F4
:104100000F920FB60F9211242F933F934F935F930B
:104110006F937F938F939F93AF93BF93EF93FF938F
:104120008091E10082FF0AC08091E20082FF06C018
:104130008091E1008B7F8093E1002DD28091DA00A5
:1041400080FF18C08091D80080FF14C08091DA00F1
:104150008E7F8093DA008091D90080FF91C080E14A
:1041600089BD82E189BD09B400FEFDCF81E0809365
:104170008D02DBDB8091E10080FF18C08091E200BE
:1041800080FF14C08091E2008E7F8093E2008091D6
:10419000E20080618093E2008091D8008062809389
:1041A000D80019BC85E080938D02D1DB8091E100BD
:1041B00084FF2AC08091E20084FF26C080E189BD8F
:1041C00082E189BD89B5982F917080FFFBCF8091E6
:1041D000D8008F7D8093D8008091E1008F7E8093FE
:1041E000E1008091E2008F7E8093E2008091E20006
:1041F00081608093E20080918902882309F445C0A0
:1042000084E080938D02AADB8091E10083FF27C0C8
:104210008091E20083FF23C08091E100877F80933B
:10422000E10082E080938D02109289028091E1008A
:104230008E7F8093E1008091E2008E7F8093E20088
:104240008091E20080618093E20042E060E080E0E3
:104250005DDE8091F00088608093F00075DBFF9157
:10426000EF91BF91AF919F918F917F916F915F91EE
:104270004F913F912F910F900FBE0F901F90189567
:1042800019BC10928D025DDB75CF8091E30087FD34
:1042900093E090938D02B7CF1F920F920FB60F92BB
:1042A00011242F933F934F935F936F937F938F933B
:1042B0009F93AF93BF93CF93DF93EF93FF93D091EF
:1042C000E900DF708091EC00C82FC17080FDC0E86C
:1042D0001092E9008091F000877F8093F00078943D
:1042E0001ED01092E9008091F00088608093F00069
:1042F000CD2BCF70C093E900FF91EF91DF91CF916B
:10430000BF91AF919F918F917F916F915F914F91ED
:104310003F912F910F900FBE0F901F901895AAE21A
:10432000B0E0E4E9F1E281C18EE892E02091F10091
:10433000FC012193CF01F2E086399F07B9F730DB0A
:104340008091E80083FF16C180918E0290918F02C8
:104350009A3008F00FC1E92FF0E0E550FC4D49C15B
:10436000803899F0823809F005C1809192028F70EF
:10437000873008F0FFC08093E9008091EB0085FB57
:10438000882780F91092E90006C080918A029091F6
:104390008B02911182609091E800977F9093E800E2
:1043A0008093F1001092F1008091E8008E77DFC0D9
:1043B000882309F4CDC0823009F0DCC080919002DE
:1043C0008111D0C0809192028F702FEF280F26307C
:1043D00008F0D0C08093E9002091EB0020FFC2C01C
:1043E000933031F48091EB0080628093EB00BAC08F
:1043F0009091EB0090619093EB0021E030E001C0E0
:10440000220F8A95EAF72093EA001092EA00809141
:10441000EB008860EACF8111ADC0109190021F7748
:104420008091E3008078812B8093E3008091E80005
:10443000877F8093E8009EDD8091E80080FFFCCFBD
:104440008091E30080688093E30082E0111183E0B3
:1044500080938D028FC08058823008F08BC080918D
:104460009002909191028C3D23E0920799F583E0B0
:104470008A838AE289834FB7F894DE01139620E09D
:104480003EE051E2E32FF0E050935700E49120FF2B
:1044900003C0E295EF703F5FEF708E2F90E0EA303F
:1044A000B8F0C7968D939D932F5F243159F74FBF76
:1044B0008091E800877F8093E8006AE270E0CE0197
:1044C000019667DC8091E8008B778093E80052C00A
:1044D000C096E8CF6091920270919302AE014F5F57
:1044E0005F4F4ADBBC01892B09F444C09091E8007E
:1044F000977F9093E80089819A81A9DCE3CF803887
:10450000C9F58091E800877F8093E8008091890257
:104510008093F10049CF81112DC09091900292308B
:1045200048F58091E800877F8093E80090938902A6
:1045300021DD80918902882311F084E005C08091FB
:10454000E30087FDFACF81E080938D0210DA12C07C
:1045500080919002813071F481E0933009F080E025
:1045600080938B021092E9008091E800877F80930E
:10457000E80000DD8091E80083FF0AC08091E80038
:10458000877F8093E8008091EB0080628093EB004E
:10459000AA96E3E066C00895CF9380918D028823A8
:1045A00099F0C091E900CF709091EC00892F817053
:1045B00090FD80E8C82B1092E9008091E80083FD0F
:1045C000AEDECF70C093E900CF91089597FB072E20
:1045D00016F4009406D077FD08D04FD007FC05D024
:1045E0003EF4909581959F4F0895709561957F4F0A
:1045F0000895EE0FFF1F0590F491E02D09946927AF
:104600009627692778278727782708952F923F9242
:104610004F925F926F927F928F929F92AF92BF92D2
:10462000CF92DF92EF92FF920F931F93CF93DF937E
:10463000CDB7DEB7CA1BDB0B0FB6F894DEBF0FBEDB
:10464000CDBF09942A88398848885F846E847D8428
:104650008C849B84AA84B984C884DF80EE80FD802A
:104660000C811B81AA81B981CE0FD11D0FB6F894A0
:10467000DEBF0FBECDBFED010895AA1BBB1B51E1EC
:1046800007C0AA1FBB1FA617B70710F0A61BB70BC2
:10469000881F991F5A95A9F780959095BC01CD0167
:1046A0000895FB01DC0104C08D910190801921F473
:1046B00041505040C8F7881B990B0895FB01DC015D
:1046C00002C001900D9241505040D8F70895F999D9
:1046D000FECF92BD81BDF89A992780B50895A8E1D3
:1046E000B0E042E050E02FC0DC01A40FB51F415004
:1046F000504040F0CB01840F951F2E9105D04150C2
:104700005040D8F70895262FF999FECF92BD81BD6C
:10471000F89A019700B4021639F01FBA20BD0FB6FF
:10472000F894FA9AF99A0FBE08950396272FECDFB2
:10473000EADF252FE9DF242FE7CF0196272FE4DFDB
:10474000E2CFDC01CB01FC01F999FECF06C0F2BD3E
:10475000E1BDF89A319600B40D9241505040B8F73F
:104760000895F894FFCF170417044D044D04A604D0
:10477000C2043F043F04C604250531053105BF12BC
:104780002F13C71291129512CB129912CF12DB126E
:10479000A5122813A912DF12AD12E3120B13B112E6
:1047A000E7121213B712ED12F5129D12D312A112D5
:1047B000D712BB12F11201131B1326138B12C31253
:1047C00036133B1741172B17351747174D1753173C
:1047D0001A1826185A186A1875188018831883181A
:1047E00083182C182C1887188B189318A018AD183C
:1047F000B018B318C018B021D821BA22D821BA22D3
:0A4800000B222B22BA227F228B220A
:10480A0022024202280850011E0A14010302010072
:10481A000001002A1B561C511C4C1C471C3F1CE261
:10482A0000E900EA00B500B600B700CD008301CC6C
:10483A00008A019201940121022302240225022600
:10484A000227022A02B300B4006F0070009F01CB56
:10485A00019F02A002818283E200E900EA00B5001A
:10486A00B600B700CD008301CC008A019201940101
:10487A002102230224022502260227022A02B30069
:10488A00B4006F0070009F01CB019F02A0028182D9
:10489A0083F5C6343233364422B6D102F9011B02FB
:0648AA009E01B701D701D9
:00000001FF
